S0150000736576656E5F7365675F6170702E73726563B0
S11300000C942A000C943F000C943F000C943F0085
S11300100C943F000C943F000C943F000C943F0060
S11300200C943F000C943F000C943F000C943F0050
S11300300C943F000C943F000C943F000C943F0040
S11300400C943F000C943F000C943F000C943F0030
S11300500C943F0011241FBECFE5D8E0DEBFCDBF16
S113006010E0A0E6B0E0EEE3F1E002C005900D92EE
S1130070AA36B107D9F70E9473000C949D000C9422
S1130080000081B38F6781BB8FE782BBB89AB99AAE
S1130090BA9ABB9A0895C09AC19AC29AC39A623016
S11300A059F018F4613031F00CC0633039F0643029
S11300B039F007C0C09805C0C19803C0C29801C0F8
S11300C0C39892B3907892BB92B3E82FF0E0E05AD1
S11300D0FF4F8081892B82BB8FE99FE00197F1F765
S11300E000C0000008950E94410000E00F2EFDECC6
S11300F0FF2EF02D0F9DD12D1124D695D695D69592
S11301009D2F990F892F880F880F890F102F181B87
S1130110CDE761E08D2F0E944B0062E0812F0E94A9
S11301204B0063E08D2F0E944B0064E0812F0E94FE
S11101304B00C15071F70F5FDDCFF894FFCF85
S10D013E3F065B4F666D7D077F6F7F
S9030000FC
